:100000008DC19FC19EC19DC19CC19BC19AC199C117
:1000100098C197C196C195C1E7C293C192C1000032
:1000200000000000005F00000007000700147F14BC
:100030007F14242A7F2A122313086462364955222A
:10004000500005030000001C2241000041221C005A
:1000500014083E081408083E080800503000000844
:1000600008080808006060000020100804023E51E3
:1000700049453E00427F4000426151494621414589
:100080004B311814127F1027454545393C4A4949E0
:100090003001710905033649494936064949291E87
:1000A00000363600000056360000081422410014C5
:1000B0001414141400412214080201510906324993
:1000C00079413E7E1111117E7F494949363E4141B9
:1000D00041227F4141221C7F494949417F09090949
:1000E000013E4149497A7F0808087F00417F41006D
:1000F0002040413F017F081422417F404040407F23
:10010000020C027F7F0408107F3E4141413E7F097F
:100110000909063E4151215E7F0919294646494990
:10012000493101017F01013F4040403F1F204020F5
:100130001F3F4038403F63140814630708700807E6
:100140006151494543007F414100020408102000ED
:1001500041417F0004020102044040404040000150
:1001600002040020545454787F48444438384444AE
:100170004420384444487F3854545418087E0901B8
:10018000020C5252523E7F0804047800447D400025
:100190002040443D007F1028440000417F40007C07
:1001A000041804787C0804047838444444387C14E7
:1001B000141408081414187C7C08040408485454C7
:1001C0005420043F4440203C4040207C1C204020E0
:1001D0001C3C4030403C44281028440C5050503CBB
:1001E0004464544C44000836410000007F00000085
:1001F000413608001008081008784641467800F09B
:10020000FCFE060206FEFCF00000071F3F30203017
:100210003F1F07000000080CFCFEFE00000000006D
:100220002020203F3F3F20202000000C0E0602022D
:1002300086FE7C38000030383C36333130303800B0
:10024000000C0E868282C6FE7C38000018383020F2
:1002500020313F1F0E000000C0201804FEFEFE00EB
:10026000000003020202223F3F3F220200007E7E86
:100270004646C6C6860000001838302020303F1F92
:100280000F0000C0F0F8FC4CC6C2820000000F1F37
:100290003F3020303F1F0F00000606060606C6F658
:1002A0003E0E00000000303C0F030000000000384C
:1002B0007CFEC682C6FE7C3800000E1F3F31203116
:1002C0003F1F0E000078FCFE860286FEFCF8000050
:1002D00000002121311D1F0F0300F0F80C0602025F
:1002E00002020E0C0003070C18101010101C0C005A
:1002F00000060609090909060600000000000000C2
:10030000000000000000008080808080808080806D
:1003100000000101010101010101010011241FBEC2
:10032000CFE5D2E0DEBFCDBF10E0A0E6B0E0E4E272
:10033000F9E002C005900D92A63CB107D9F7EFD1C4
:10034000EFC25ECE83E087B93F9A379A369A3699E4
:10035000FECF84B125B190E0922B0895CF93DF9327
:100360009FEF920FE1E0F0E0DF0102C0AA0FBB1F98
:100370009A95E2F7EF0102C0CC0FDD1F6A95E2F714
:10038000BE019C2F082E01C0EE0F0A94EAF73E2F03
:100390006095E0952223A1F0ED01C423D52388B315
:1003A000CD2B11F0892B01C0862388BB88B3832B0A
:1003B00088BBB695A795215088B38E2388BBEACF1A
:1003C000DF91CF910895C19A482F50E028E062E074
:1003D00084E0C4CFC198482F50E028E062E084E078
:1003E000BDCF88B3887E88BB87B3876187BB83EC2A
:1003F00099E00197F1F700C00000C09A81E2EADFBE
:1004000081EAE8DF84E0E6DF84E1E4DF80E2E2DF46
:100410008CE0E0CF1F93CF93DF93182F119580E8E6
:10042000D9DF80E4D7DFC8EFD1E0812FCCDF21977F
:10043000E1F7DF91CF911F9108957F928F929F9264
:10044000AF92BF92CF92DF92EF92FF920F931F93E2
:10045000CF93DF93C82F162F922E842F90E066E162
:1004600070E098D182509E4F7C01CC2ED12C8FEF22
:10047000C81AD80AE12FE0688E2E86E0782E4C2F1D
:1004800050E0C416D50604F1882DA4DF8C2F672D0B
:1004900092D1892F80649EDF5701FBE0AF0EB11C23
:1004A000F701D4918D2F011180958DDF992021F0D6
:1004B0008D2F0111809587DFFFEFEF1AFF0AEA14F5
:1004C000FB0471F7CF5FDBCF143580F4802F81956B
:1004D000DF91CF911F910F91FF90EF90DF90CF9020
:1004E000BF90AF909F908F907F906DCFDF91CF9115
:1004F0001F910F91FF90EF90DF90CF90BF90AF9042
:100500009F908F907F900895EF92FF920F931F938B
:10051000CF93DF9300D0CDB7DEB7182F362FE22E62
:10052000863008F03CC06435D0F580EE840F80360C
:1005300008F04FE3832F80683A8349834BDF812F94
:1005400066E039D1892F806445DF4981842F90E0AE
:10055000809765E070E01ED18C01025E1F4F3A81EA
:1005600085E0F82EF30EF8018491E11080953A832E
:100570002ADF3A813F5F0F5F1F4F3F1519F0343577
:1005800091F70DC0343559F08E2D81950F900F9055
:10059000DF91CF911F910F91FF90EF9014CF0F90AB
:1005A0000F90DF91CF911F910F91FF90EF900895E1
:1005B000FF920F931F93CF93DF93D82FC62FF22E66
:1005C0008A01F80141918F01442341F0C43530F490
:1005D0002F2D6C2F8D2F98DFCA5FF3CFDF91CF9136
:1005E0001F910F91FF9008951F920F920FB60F92D7
:1005F00011248F929F92AF92BF92CF92DF92EF928F
:10060000FF920F932F933F934F935F936F937F933B
:100610008F939F93AF93BF93CF93EF93FF9380E01C
:10062000F9DE20E040E650E060E080E0C1DFC0E1BC
:10063000E12CF12C87DEE80EF91EC150D9F7B70185
:1006400084E0759567958A95E1F7882777FD809511
:10065000982F2CE434E040E050E0CED049015A011C
:100660009AE0B694A794979487949A95D1F724EF3B
:10067000821621E092062CF034EF831A31E0930ABF
:100680000CC084EF91E09C0128193909490100E070
:1006900020E04CE060E082E0D0DEC40164E670E07F
:1006A00096D07B0100E021E0462F6CE082E0C5DEC1
:1006B000C70199276CE97FEF6DD0880D991D6AE01D
:1006C00070E085D0462F21E062E282E0B6DE20E0D5
:1006D0004BE068E382E0B1DE20E04AE062E482E0E1
:1006E000ACDE81B5806481BDFF91EF91CF91BF9168
:1006F000AF919F918F917F916F915F914F913F91BA
:100700002F910F91FF90EF90DF90CF90BF90AF901F
:100710009F908F900F900FBE0F901F901895BB98D1
:1007200060DE80E077DE20E04EE650E060E080E0D2
:100730003FDF20E04DE750E060E081E039DF20E07E
:100740004CE850E060E082E033DF20E04BE950E02D
:1007500060E083E02DDF20E04AEA50E060E084E0E2
:1007600027DF20E049EB50E060E085E021DFF894EE
:1007700014BE88E181BD11BC80E681BD789485B747
:10078000877E806185BF85B7806285BF889585B784
:100790008F7DF8CF0024552704C0080E591F880FFD
:1007A000991F009729F076956795B8F37105B9F709
:1007B000802D952F0895991B79E004C0991F9617F5
:1007C00008F0961B881F7A95C9F78095089597FBC6
:1007D000072E16F4009406D077FD08D05FD007FCF2
:1007E00005D03EF4909581959F4F08957095619541
:1007F0007F4F089568940010E894A0E0B0E0E2E034
:10080000F4E01DC0EFEFE7F959016A015E23550FCF
:10081000EE08FE2C87019B01AC019E23990F660B0D
:10082000762FCB014FD0CDB7DEB7EAE024C02F92B0
:100830003F924F925F926F927F928F929F92AF9270
:10084000BF92CF92DF92EF92FF920F931F93CF93BD
:10085000DF93CDB7DEB7CA1BDB0B0FB6F894DEBF54
:100860000FBECDBF09942A88398848885F846E847A
:100870007D848C849B84AA84B984C884DF80EE80C4
:10088000FD800C811B81AA81B981CE0FD11D0FB6CD
:10089000F894DEBF0FBECDBFED010895AA1BBB1BB0
:1008A00051E107C0AA1FBB1FA617B70710F0A61B70
:1008B000B70B881F991F5A95A9F780959095BC0191
:1008C000CD010895DF93CF939F92A0E49A2E002448
:1008D000D001E001F00116950795F794E794D794BD
:1008E000C794B794A79448F41068A20FB31FC41F0D
:1008F000D51FE61FF71F081E191E220F331F441FA6
:10090000551F661F771F881F991F9A9421F79D0115
:10091000AE01BF01C00111249F90CF91DF910895D6
:04092000F894FFCF79
:10092400202054454D5045524154555241002054C5
:1009340065726D6F6D657472206E612000637A75E7
:100944006A6E696B7520544D503336002069206BF4
:100954006F6E74726F6C65727A6500415454494EBF
:100964005938352C2074656D70006F64202D353036
:1009740020646F202B363043007A6173696C616E9A
:06098400696520335600F6
:00000001FF
